:020000042001D9
:100000009711FF5F9381012E970200009382820176
:100010007390523093021000638402007350107C7E
:100020009702000093828215739052301701FFDF10
:10003000130141FD63140100138101E3732540F1B5
:10004000814213030040137101FF6385A2001A91DE
:100050008502D5BF970000009380A0046383000051
:100060008290732540F1814501462D229700FFDFE4
:10007000938040F96383000082909702000093828E
:10008000C2007390523003230000F5BF000000004F
:100090008280232003001103E34D73FE82800684D7
:1000A0009702FFDF938202F66385020C9702FFDF5F
:1000B000938242F5F32740F1A14673B00630639670
:1000C000570A1703FFE71303E3F39723FFE793832D
:1000D00063F3630E7300753F1703FFDF130383F2AF
:1000E0009703FFDF938303F2630373005D37170306
:1000F000FF5F130323F19743FF5F9383A3F0630331
:100100007300413F1703FFDF1303C3EF9703FFDFC4
:10011000938343EF63037300AD3F1703FFDF1303C4
:1001200063EE9703FFDF9383E3ED6303730095377B
:100130001703FFDF130303ED9703FFDF938383ECC4
:1001400063037300B9371703FFDF1303A3EB9703B0
:10015000FFDF938323EB63037300253F3707000220
:1001600085471CC30F00300129A0370700021C433C
:10017000EDDFA28082800000F3222034732310344C
:10018000F3233034D5BF411122C6000801003244A8
:100190004101828006849711FF5F9381A11493022D
:1001A00000006311550A97F200009382A2E2170340
:1001B000FF5F130323E593830188638C6200635A16
:1001C000730003A5020091022320A3001103E34A58
:1001D00073FE97120000938262671703FFE7130311
:1001E00063E29703FFE79383E3E1638C6200635A62
:1001F000730003A5020091022320A3001103E34A28
:1002000073FE0F10000013830188938301A36357CB
:100210007300232003001103E34D73FE1382018852
:1002200011C2029617E50000130545B6EFD0303233
:10023000EFD0103917F500001305A5D1EFD03031FC
:10024000EFE0904F8937FD5673B0463073B04634B7
:10025000F3271030372704007D8F09C773B036307D
:1002600073B02630370704007D8F19C373B00618AA
:100270003707010013078702F98F89CBF327003076
:100280000967D98F73900730735030000545971573
:1002900000009385E547171600001306A647312096
:1002A000EFD0102CA28082808280411106C2F322FE
:1002B00040F1130300006385620073005010F5BF26
:0A02C000EF30007792404101828088
:0C02D000DC0201200803012032030120A1
:1002DC00011106CE22CC0010EFB000202326A4FE84
:1002EC008327C4FE99C7B7170080138547ADEFB0BD
:1002FC0020270100F240624405618280011106CE84
:10030C0022CC0010EFB0401D2326A4FE8325C4FE92
:10031C00B7170080138547ADEFD0804A0100F2403B
:10032C00624405618280411106C622C40008F1674F
:10033C0093850720B71700801385C7A7EF80C046A9
:0A034C000100B2402244410182800A
:1003580025642C2025642C2025640A00E7FBFF4235
:10036800000000C3000000439A99193E920A863E95
:10037800920A86BE920A063F920A06BF0000000053
:10038800182D4454FB21194000003443000000009C
:10039800182D4454FB210940CBBB2A4217A3A44182
:1003A80074F9CC41753B953FDB17103DC85B2E3C7B
:1003B80093A7843F6E1930BDF1677C3F4C6967682D
:1003C800742053656E736F722049443A2030782543
:1003D8003032580A000000000000C8420000803F88
:1003E8000000CC43CDCC4C3FCDCC4C3E24977F3B3A
:1003F8000000004503000201040101020502030197
:1004080003020303030400000500030004000501C0
:1004180005020401030202030104000005020401AD
:1004280003000403030404020302020201020000A1
:10043800050403040404050305020403030202017E
:100448000100000003040203040301020502030083
:100458000301030203030000010401030102020473
:100468000304020303020401050000000102020361
:100478000201030003040202030204020502000051
:10048800010002000300010101020201030204034A
:10049800050400000000C0400000704200008040D9
:1004A8000000F0410000803F0000A04000007041C3
:1004B8000000C8410000204100803B4500E03A456B
:1004C80000006B435541525420646576696365208A
:1004D8006E6F7420666F756E64210000554152542A
:1004E80020646576696365206E6F7420696E69742F
:1004F80069616C697A65642100000000436865637E
:100508006B73756D206D69736D617463683A2065EE
:1005180078706563746564203078253032582C20F3
:10052800676F74203078253032580A004661696C4C
:10053800656420746F2067657420493243206465C0
:10054800766963652E000000496E697469616C699B
:100558007A6174696F6E206661696C65642E00004B
:100568000000000000000000000000000000000083
:100578000000000000000000000000000000000073
:100588000000000000000000000000000000000063
:100598000000000000000000000000000000000053
:1005A8000000000000000000000000000000000043
:1005B8000000000000000000000000000000000033
:1005C800232D302B20000000686C4C0065666745C1
:1005D80046470000303132333435363738394142F6
:1005E8004344454600000000303132333435363755
:1005F8003839616263646566000000006855000070
:10060800B8540000BE540000B85400005A55000009
:10061800B8540000BE54000068550000685500003A
:100628005A550000BE5400009E5400009E5400001D
:100638009E540000C25400005A5A0000845A000018
:10064800AC5A0000845A0000F85A0000845A00008E
:10065800AC5A00005A5A00005A5A0000F85A0000D2
:10066800AC5A00006C5A00006C5A00006C5A00002A
:10067800B05A00004C5D00004C5D0000645D000055
:10068800485D0000485D0000AA5D0000645D000050
:10069800485D0000AA5D0000485D0000645D000040
:1006A800465D0000465D0000465D0000AA5D000052
:1006B8000001020203030303040404040404040401
:1006C80005050505050505050505050505050505D2
:1006D80006060606060606060606060606060606B2
:1006E80006060606060606060606060606060606A2
:1006F8000707070707070707070707070707070782
:100708000707070707070707070707070707070771
:100718000707070707070707070707070707070761
:100728000707070707070707070707070707070751
:100738000808080808080808080808080808080831
:100748000808080808080808080808080808080821
:100758000808080808080808080808080808080811
:100768000808080808080808080808080808080801
:1007780008080808080808080808080808080808F1
:1007880008080808080808080808080808080808E1
:1007980008080808080808080808080808080808D1
:1007A80008080808080808080808080808080808C1
:1007B800000FC93F000F494000CB9640000FC940C9
:1007C8000053FB4000CB164100ED2F41000F49417B
:1007D8000031624100537B41003A8A4100CB964187
:1007E800005CA34100EDAF41007EBC41000FC94150
:1007F80000A0D5410031E24100C2EE410053FB4167
:1008080000F20342003A0A420083104200CB16422B
:1008180000141D42005C234200A5294200ED2F422E
:1008280000363642007E3C4200C74242000F494231
:10083800A2000000F9000000830000006E00000024
:100848004E000000440000001500000029000000D0
:10085800FC0000002700000057000000D100000045
:10086800F500000034000000DD000000C0000000BA
:10087800DB00000062000000950000009900000005
:100888003C00000043000000900000004100000010
:10089800FE0000005100000063000000AB000000F3
:1008A800DE000000BB000000C50000006100000081
:1008B800B7000000240000006E0000003A000000AD
:1008C800420000004D000000D2000000E0000000DF
:1008D80006000000490000002E000000EA000000A9
:1008E80009000000D1000000920000001C00000078
:1008F800FE0000001D000000EB0000001C000000CE
:10090800B100000029000000A70000003E00000020
:10091800E80000008200000035000000F50000003B
:100928002E000000BB00000044000000840000000E
:10093800E90000009C000000700000002600000094
:10094800B40000005F0000007E00000041000000CD
:100958003900000091000000D600000039000000B6
:10096800830000005300000039000000F40000007C
:100978009C000000840000005F0000008B00000065
:10098800BD000000F9000000280000003B00000046
:100998001F000000F800000097000000FF000000A2
:1009A800DE00000005000000980000000F000000B5
:1009B800EF0000002F000000110000008B00000075
:1009C8005A0000000A0000006D0000001F0000002F
:1009D8006D000000360000007E000000CF0000001F
:1009E80027000000CB00000009000000B70000004D
:1009F8004F000000460000003F00000066000000B5
:100A08009E0000005F000000EA0000002D000000CA
:100A18007500000027000000BA000000C7000000B1
:100A2800EB000000E5000000F10000007B00000082
:100A38003D0000000700000039000000F70000003A
:100A48008A0000005200000092000000EA00000046
:100A58006B000000FB0000005F000000B100000018
:100A68001F0000008D0000005D000000080000006D
:100A7800560000000300000030000000460000009F
:100A8800FC0000007B0000006B000000AB000000D1
:100A9800F0000000CF000000BC00000020000000B3
:100AA8009A000000F4000000360000001D0000005D
:100AB800A9000000E30000009100000061000000B0
:100AC8005E000000E60000001B00000008000000B7
:100AD8006500000099000000850000005F0000002C
:100AE80014000000A00000006800000040000000A2
:100AF8008D000000FF000000D8000000800000000A
:100B08004D000000730000002700000031000000C5
:100B18000600000006000000150000005600000056
:100B2800CA00000073000000A8000000C90000000F
:100B380060000000E20000007B000000C000000030
:100B48008C0000006B00000004000000070000009B
:100B5800090000000000C93F0000F0390000DA3742
:100B68000000A2330000842E0000502B0000C22792
:100B78000000D0220000C41F0000C61B000044175C
:100B88003863ED3EDA0F493F5E987B3FDA0FC93F85
:100B98006937AC3168212233B40F14336821A2338A
:100BA800B88A01206C8C0120508C012000000000C4
:100BB80000000000708F0120A68F0120468B0120C5
:100BC800288C0120C68C0120808D012000000000A7
:100BD800000000000000000000000000000000000D
:100BE8000000000000000000000000003A8E012014
:100BF800EA89012000000000000000000000000059
:100C0800000000006AA001205CA0012030A00120A3
:100C180030A0012046A0012024A101208AA10120A2
:100C28008AA1012036A101208AA101208AA10120E0
:100C38008AA1012048A101208AA101208AA10120BE
:100C48008AA101205AA101208AA101208AA101209C
:100C58008AA101208AA101206CA101206CA1012098
:100C68006CA101206CA101206CA101206CA10120C4
:100C78006CA101206CA101206CA101206CA10120B4
:100C88006CA101206CA101206CA101206CA10120A4
:100C98006CA101206CA10120ECA101201EA501205E
:100CA80002A5012000000000000000000000000074
:100CB80000000000D0A2012000000000AAA401202A
:100CC800D6A4012000000000000000000000000081
:100CD800000000000000000000000000000000000C
:100CE8000000000072A501200000000000000000C4
:100CF8000000000000000000000000008EA5012098
:100D080000A6012046A60120ACA6012022A70120AA
:100D180038A701204CA7012062A7012076A701204F
:100D2800D8A701203AA801209AA80120BAA8012032
:100D380000A901202EA901204CA901206CA901209D
:100D48007EAD01200000000000000000000000004F
:100D5800000000000000000000000000DAAE0120E2
:100D6800000000009CAF0120ECAF01200000000053
:100D7800000000006CB001203CB00120E0AB012075
:100D88007AAB012000000000000000000000000015
:100D98000000000094B0012030B10120CCB1012046
:100DA80040B201200100000020000000001BB70035
:100DB80000366E01010000001F0000000300000063
:100DC8003F000000010000002000000000366E0116
:100DD800006CDC02030000001F000000020000009D
:100DE8003F0000000100000010000000808D5B0043
:100DF800001BB700000000001F00000003000000F7
:100E08003F0000000100000010000000001BB700B8
:100E180000366E01010000001F0000000200000003
:100E28003F000000010000001000000000366E01C5
:100E3800006CDC02030000001F000000020000003C
:100E48001F0000000100000008000000808D5B000A
:100E5800001BB700000000001F0000000300000096
:100E68001F0000000100000008000000001BB70080
:100E780000366E01010000001F00000002000000A3
:100E88001F000000010000000800000000366E018D
:100E9800006CDC02030000001F00000002000000DC
:100EA8000F0000000100000004000000808D5B00BE
:100EB800001BB700000000001F0000000300000036
:100EC8000F0000000100000004000000001BB70034
:100ED80000366E01010000001F0000000200000043
:100EE8000F000000010000000400000000366E0141
:100EF800006CDC02030000001F000000020000007C
:100F0800070000000100000002000000808D5B0067
:100F1800001BB700000000001F00000002000000D6
:100F28000F0000000100000002000000001BB700D5
:100F380000366E01010000001F00000001000000E3
:100F48000F000000010000000200000000366E01E2
:100F5800006CDC02030000001F000000010000001C
:100F6800070000000200000001000000808D5B0007
:100F7800001BB700000000001F0000000100000077
:100F8800070000000200000001000000001BB7007D
:100F980000366E01010000001F0000000100000083
:100FA80003000000020000000100000000366E018E
:100FB800006CDC02030000001F00000003000000BA
:100FC800FFFFFFFF0400000001000000808D5B00B0
:100FD800001BB700000000001F0000000300000015
:100FE800000000000400000001000000001BB70022
:100FF80000366E01010000001F0000000300000021
:10100800FFFFFFFF040000000100000000366E0132
:10101800006CDC02030000001F000000020000005A
:10102800FFFFFFFF0600000001000000808D5B004D
:10103800AAC2A20000000000230000000100000076
:10104800020000000600000001000000AAC2A20081
:10105800001BB7000000000017000000030000009C
:10106800FFFFFFFF0600000001000000001BB700A3
:101078000024F400010000002F000000030000001D
:10108800FFFFFFFF06000000010000000024F4003D
:1010980080A81201010000001700000002000000F3
:1010A800FFFFFFFF060000000100000080A81201FA
:1010B80055854501020000002300000002000000E1
:1010C800FFFFFFFF0800000001000000808D5B00AB
:1010D800001BB700000000001F0000000300000014
:1010E800FFFFFFFF0800000001000000001BB70021
:1010F80000366E01010000001F0000000200000021
:10110800FFFFFFFF080000000100000000366E012D
:10111800006CDC02030000001F000000010000005A
:10112800FFFFFFFF0A00000001000000808D5B0048
:10113800007C92000000000027000000030000006F
:10114800FFFFFFFF0A00000001000000007C920082
:10115800001BB700000000001300000002000000A0
:10116800FFFFFFFF0A00000001000000001BB7009E
:1011780000F8240101000000270000000200000020
:10118800FFFFFFFF0A0000000100000000F8240133
:1011980000366E010100000013000000010000008D
:1011A800FFFFFFFF0A0000000100000000366E018B
:1011B80000F04902030000002700000001000000C1
:1011C800FFFFFFFF0C00000001000000808D5B00A6
:1011D80000127A00000000002F0000000300000049
:1011E800FFFFFFFF0C0000000100000000127A0062
:1011F800001BB700000000001700000002000000FC
:10120800FFFFFFFF0C00000001000000001BB700FB
:101218000024F400010000002F000000020000007C
:10122800FFFFFFFF0C000000010000000024F40095
:1012380000366E01010000001700000001000000E8
:10124800FFFFFFFF0C0000000100000000366E01E8
:1012580080C3C901030000002F0000000100000046
:10126800FFFFFFFF0C0000000100000080C3C90160
:101278000048E801030000002F0000000100000002
:10128800FFFFFFFF0E00000001000000808D5B00E3
:10129800B6A168000000000037000000030000004D
:1012A800FFFFFFFF0E00000001000000B7A168006B
:1012B800001BB700000000001B0000000200000037
:1012C800FFFFFFFF0E00000001000000001BB70039
:1012D8006D43D1000100000037000000020000004B
:1012E800FFFFFFFF0E000000010000006E43D10069
:1012F80000366E01010000001B0000000100000024
:10130800FFFFFFFF0E0000000100000000366E0125
:10131800DB86A20103000000370000000100000086
:10132800FFFFFFFF1000000001000000808D5B0040
:10133800001BB700000000001F00000002000000B2
:10134800FFFFFFFF1000000001000000001BB700B6
:1013580000366E01010000001F00000001000000BF
:10136800FFFFFFFF1200000001000000808D5B00FE
:10137800AAC2A20000000000230000000200000032
:10138800FFFFFFFF1200000001000000ABC2A20037
:10139800001BB70000000000110000000100000061
:1013A800FFFFFFFF1200000001000000001BB70054
:1013B80055854501010000002300000001000000E0
:1013C800FFFFFFFF1400000001000000808D5B009C
:1013D800007C9200000000002700000002000000CE
:1013E800FFFFFFFF1400000001000000007C9200D6
:1013F800001BB700000000001300000001000000FF
:10140800FFFFFFFF1400000001000000001BB700F1
:1014180000F824010100000027000000010000007E
:10142800FFFFFFFF1600000001000000808D5B0039
:10143800E82A8500000000002B00000002000000E0
:10144800FFFFFFFF1600000001000000E92A8500E9
:10145800001BB7000000000015000000010000009C
:10146800FFFFFFFF1600000001000000001BB7008F
:10147800D1550A01010000002B0000000100000006
:10148800FFFFFFFF1800000001000000808D5B00D7
:1014980000127A00000000002F0000000200000087
:1014A800FFFFFFFF180000000100000000127A0093
:1014B800001BB7000000000017000000010000003A
:1014C800FFFFFFFF1800000001000000001BB7002D
:1014D8000024F400010000002F00000001000000BB
:1014E800FFFFFFFF1A00000001000000808D5B0075
:1014F80027AE70000000000033000000020000006A
:10150800FFFFFFFF1A0000000100000028AE700076
:10151800001BB700000000001900000001000000D7
:10152800FFFFFFFF1A00000001000000001BB700CA
:101538006658E100010000003300000001000000CF
:10154800FFFFFFFF1C00000001000000808D5B0012
:10155800B6A168000000000037000000020000008B
:10156800FFFFFFFF1C00000001000000B7A168009A
:10157800001BB700000000001B0000000100000075
:10158800FFFFFFFF1C00000001000000001BB70068
:101598006D43D10001000000370000000100000089
:1015A800FFFFFFFF1E00000001000000808D5B00B0
:1015B80000A86100000000003B00000002000000DD
:1015C800FFFFFFFF1E0000000100000000A86100EF
:1015D800001BB700000000001D0000000100000013
:1015E800FFFFFFFF1E00000001000000001BB70006
:1015F8000050C300010000003B0000000100000093
:10160800FFFFFFFF2000000001000000808D5B004D
:10161800001BB700000000001F00000001000000D0
:10162800FFFFFFFF6CB5012018B60120E6B90120C5
:101638008CC201200AC3012022C301203EC301201D
:101648008CC3012070C30120A8C30120DEC3012080
:10165800CCC5012092C40120AAC40120C6C401201F
:1016680014C50120F8C4012030C5012066C5012039
:10167800B6BF012076BF0120FCBF012026C0012093
:1016880052C0012098C00120D8C0012018C10120F3
:101698005EC101209EC1012000C201204AC2012072
:1016A80050C40120D8C50120F8C501205EC701201B
:1016B800B0CA012018CC012070CD0120F2C701204A
:1016C80012C8012040D60120E0D30120BCD201205D
:1016D80022D4012078D4012098D4012098D1012067
:1016E800B8D10120D8D1012012D201204AD201203C
:1016F80084D20120ECD2012036D3012066D3012008
:10170800B0D3012014170120000000006C69626743
:101718006C6F737300000000B6CF0000B6CF0000F6
:10172800CECF0000B0CF0000B0CF00005CD00000EA
:10173800CECF0000B0CF00005CD00000B0CF0000DA
:10174800CECF0000AECF0000AECF0000AECF00007D
:101758005CD0000000000000DB0FC93FDB0F4940F0
:10176800DB0F49C000000080DB0FC9BFE4CB164087
:10177800E4CB16C0DB0F493FDB0F49BF2EBDBB339F
:10178800800FC93F434435370044353708A3852EB9
:1017980084F9223F0000003F00A3852E32318D24BA
:1017A800000080430000383F0000903E0000803F6A
:1017B8004ED747ADF6740F317CF29334010DD03714
:1017C800610BB63AABAA2A3D0000C93F0000803B36
:1017D8000000003E00000041D3C92E2F342FD7321D
:1017E8001BEF3836010D50398988083CABAA2A3ED0
:1017F800CAF24971000000400000C03F000080BFED
:10180800D769853C59DA4B3D356B883D6E2EBA3D1C
:101818002549123EABAAAA3E21A215BD6BF16E3D29
:1018280095879D3D388EE33DCDCC4C3E0000004C65
:101838006042A20DCAF249F16042A28D0000003355
:10188000411106C622C400080145EF60D06D05472E
:10189000B7170080938607AE0946E545EF60F06014
:1018A0000100B240224441018280797106D622D4DF
:1018B0000018232EA4FC9307C0F8A306F4FE0145EC
:1018C000EF60706A9307D4FE0147BE860546E54582
:1018D000EF60B05D0145EF601069930784FE054736
:1018E000BE860946E545EF60B060834794FE231746
:1018F000F4FE8317E4FE3E85EF40906D2A87832730
:10190000C4FD98C30100B250225445618280011188
:1019100006CE22CC00102326A4FEB707012083A503
:1019200047360325C4FEEF40F001AA876359F00053
:10193000B707012083A747362326F4FE15A0B70773
:10194000012083A587360325C4FEEF403007AA8710
:1019500063D80700B707012083A787362326F4FE44
:10196000B707012083A5C7360325C4FEEF40900CBE
:10197000AA873E85EF40D05FAA87C207C1873E8510
:10198000F240624405618280011106CE22CC001033
:10199000AA872317F4FE8317E4FE3E85EF405063C9
:1019A0002A87B707012083A5C7363A85EF40A054A0
:1019B000AA873E85F240624405618280411106C6D5
:1019C00022C400080145EF60105A0547B717008090
:1019D000938647AE0946F945EF60304DF12301008B
:1019E000B240224441018280797106D622D426D2A7
:1019F0000018232EA4FC232CB4FCA157A307F4FE4B
:101A00000145EF6050569307F4FE0147BE86054638
:101A1000F945EF6090490145EF60F054930784FE6B
:101A20000547BE861946F945EF60904C834794FE02
:101A3000A207139707014187834784FEC207C18726
:101A4000D98F1397070141878327C4FD2390E700AF
:101A50008347B4FEA2071397070141878347A4FE7B
:101A6000C207C187D98F1397070141878327C4FD18
:101A70002391E7008347D4FEA2071397070141870C
:101A80008347C4FEC207C187D98F139707014187D7
:101A90008327C4FD2392E7008327C4FD83970700B3
:101AA0003E85EF40F0522A87B707012083A507370C
:101AB0003A85EF402078AA873E85913DAA873E87E8
:101AC0008327C4FD2390E7008327C4FD8397270065
:101AD0003E85EF40F04F2A87B707012083A50737DF
:101AE0003A85EF402075AA873E851535AA873E873F
:101AF0008327C4FD2391E7008327C4FD8397470014
:101B00003E85EF40F04C2A87B707012083A50737B1
:101B10003A85EF402072AA873E85D53BAA873E874B
:101B20008327C4FD2392E7008324C4FD832584FD1D
:101B30000325C4FD0D20AA872E882393F40013D714
:101B400007012394E400239504010100B2502254BC
:101B5000925445618280197186DEA2DCA6DACAD869
:101B6000CED6D2D400012326A4F82324B4F88327A8
:101B700084F8839707003E87832784F883970700BC
:101B80003307F702832784F883972700BE868327CD
:101B900084F883972700B387F6023E97832784F85B
:101BA00083974700BE86832784F883974700B387CF
:101BB000F602BA973E85EF40B041AA873E85EF50C6
:101BC0004018232AA4FC832784F8839707003E85C6
:101BD000EF401040AA87832544FD3E85EF40A031A9
:101BE000AA872328F4FC832784F8839727003E855F
:101BF000EF40103EAA87832544FD3E85EF40A02F8D
:101C0000AA872326F4FC832784F8839747003E8520
:101C1000EF40103CAA87832544FD3E85EF40A02D70
:101C2000AA872324F4FC8325C4FC0325C4FCEF40CD
:101C30006060AA87BE84832584FC032584FCEF4072
:101C4000605FAA87BE852685EF30107AAA873E8519
:101C5000EF50200FAA87BE85032504FDEF50400EEC
:101C6000232EA4FC0327C4FCB7070080B344F7006D
:101C7000832504FD032504FDEF40C05BAA873E8A4F
:101C8000832584FC032584FCEF40C05AAA87BE85C7
:101C90005285EF307075AA873E85EF50800AAA877B
:101CA000BE852685EF50C0092322A4FC93050000C1
:101CB000032584FCEF408050AA8763D907000327DF
:101CC000C4FDB7070080B98F232EF4FCB7070120AD
:101CD00083A74737BE850325C4FDEF4010702A87D0
:101CE000B707012083A78737BE853A85EF40306B61
:101CF0002A87B7070080B98F232EF4FCB70701208D
:101D000083A7C737BE85032544FCEF40106D2A87A3
:101D1000B707012083A70738BE853A85EF403068B2
:101D20002A87B7070080B98F2322F4FC8327C4F8E1
:101D3000839707003E8589392320A4FC8327C4F8B4
:101D4000839727003E858931232EA4FA8327C4F880
:101D5000839747003E850D39232CA4FA9307C4F9D5
:101D6000130704FA930644FA032684FB8325C4FB75
:101D7000032504FCF9240325C4FDEF40305A2A87CB
:101D8000832744FABE853A85EF40C04AAA87BE84BD
:101D90000325C4FDEF40B06B2A878327C4F9BE85B5
:101DA0003A85EF402049AA87BE852685EF30D0636B
:101DB000AA87232AF4FA032544FCEF4050692A87B6
:101DC000832744FABE853A85EF40C046AA87BE8481
:101DD0000325C4FDEF40B067AA87BE852685EF4086
:101DE0006045AA87BE84032544FCEF4030532A8710
:101DF000832704FABE853A85EF40C043AA87BE8593
:101E00002685EF30705EAA87BE84032544FCEF4030
:101E100010642A878327C4F9BE853A85EF40804144
:101E2000AA873E8A0325C4FDEF40504FAA87BE858E
:101E30005285EF402040AA87BE852685EF4080610D
:101E4000AA872328F4FA032704FBB7070080B98F79
:101E5000832544FB3E85EF40B06E232CA4FC930504
:101E60000000032584FDEF406035AA8763D7070291
:101E7000032584FDEF40302BB707012003A68738E8
:101E800083A6C738EF30801DAA872E883E85C2857D
:101E9000EF40F032AA87232CF4FCB707012083A57A
:101EA0000739032584FDEF40E038AA873E85EF40DF
:101EB0009027B707012003A6873983A6C739EF30DB
:101EC0000079AA872E883E85C285EF30B04BAA875D
:101ED0002317F4FAB707012083A507390325C4FDAA
:101EE000EF404035AA873E85EF40F023B707012039
:101EF00003A6873983A6C739EF306075AA872E8875
:101F00003E85C285EF301048AA8793940701C184AB
:101F1000B707012083A50739032544FCEF40803132
:101F2000AA873E85EF403020B707012003A68739F6
:101F300083A6C739EF30A071AA872E883E85C28557
:101F4000EF305044AA87C207C1870357E4FA23142D
:101F5000E4FA231594FA2316F4FA8147835684FA97
:101F600041677D17758FC176F58FD98F0357A4FA16
:101F70004207C166FD16F58FD98F01470356C4FA93
:101F8000C166FD16F18E4176718F558F3E89BA89F3
:101F9000CA874E883E85C285F6506654D654465947
:101FA000B659265A09618280011106CE22CC001052
:101FB000930750042304F4FEA30404FE230504FE47
:101FC000A30504FE230604FEA30604FE230704FE65
:101FD0000145EF604079930784FE0547BE861D46A4
:101FE000F945EF60806C0100F24062440561828037
:101FF000797106D622D40018453F9307C4FD3E856B
:10200000EF00900E1307C4FD930744FEBA853E858A
:10201000E13A831744FE3E87831764FE3E868317AA
:1020200084FEBE86BA85B707012013858735EF1079
:10203000502C7945EF10E0340100B2502254456134
:102040008280397106DE22DC26DA8000232EA4FC91
:10205000232CB4FC232AC4FC2328D4FC2326E4FC30
:102060002324F4FCB707012083A5073A0325C4FD08
:10207000EF40403EAA872326F4FEB707012083A540
:10208000473A032584FDEF303036AA872324F4FE37
:10209000B707012083A5873A032544FDEF40803B25
:1020A000AA872322F4FEB707012083A5C73A032598
:1020B000C4FEEF402018AA87BE84B707012083A57D
:1020C000073B032584FEEF40E016AA87BE852685E0
:1020D000EF309031AA87BE84B707012083A5473B24
:1020E000032544FEEF400015AA87BE852685EF3004
:1020F000B02FAA873E87832704FD98C3B707012026
:1021000083A5073B0325C4FEEF40C012AA87BE8407
:10211000B707012083A5873B032584FEEF4080118C
:10212000AA87BE852685EF30302CAA87BE84B707E4
:10213000012083A5C73B032544FEEF40A00FAA87DB
:10214000BE852685EF30502AAA873E878327C4FCA8
:1021500098C3B707012083A5473B0325C4FEEF4082
:10216000600DAA87BE84B707012083A5C73B03255E
:1021700084FEEF40200CAA87BE852685EF30D0264E
:10218000AA87BE84B707012083A5073C032544FE28
:10219000EF40400AAA87BE852685EF30F024AA8743
:1021A0003E87832784FC98C30100F2506254D254C6
:1021B00021618280411106C622C400080145EF60FA
:1021C000805A0547B7170080938687AE0946930566
:1021D0009002EF60804D0145EF60E058054793861F
:1021E000C180094693059002EF60204C0100B24087
:1021F000224441018280797106D622D40018232E10
:10220000A4FC930780F8A307F4FE0145EF60A055F6
:102210009307F4FE0147BE86054693059002EF60E2
:10222000C0480145EF602054930784FE0547BE86F1
:10223000054693059002EF60A04B930790F8A30723
:10224000F4FE0145EF6020529307F4FE0147BE867D
:10225000054693059002EF6040450145EF60A050B0
:10226000930784FE85070547BE86054693059002C1
:10227000EF6000489307A0F8A307F4FE0145EF6064
:10228000804E9307F4FE0147BE86054693059002F3
:10229000EF60A0410145EF60004D930784FE890780
:1022A0000547BE86054693059002EF60604493079C
:1022B000B0F8A307F4FE0145EF60E04A9307F4FE8F
:1022C0000147BE86054693059002EF60003E01453A
:1022D000EF606049930784FE8D070547BE8605467B
:1022E00093059002EF60C040834794FEA2071397C6
:1022F00007014187834784FEC207C187D98FC20780
:10230000C1871397070141838327C4FD2391E70009
:102310008347B4FEA2071397070141878347A4FEB2
:10232000C207C187D98FC207C187139707014183AD
:102330008327C4FD2390E7000325C4FD11282A87C5
:102340008327C4FDD8C30100B25022544561828066
:10235000797106D622D426D24AD00018232EA4FCA6
:102360008327C4FD83D7070099CB8327C4FD03D7F8
:1023700007008327C4FD83D727006375F700930701
:102380000000C1A8B707012003A7073EB707012037
:1023900083A7473EBE853A85EF30D069AA873E873E
:1023A000B707012083A5873E3A85EF30D034AA874E
:1023B0002326F4FE8327C4FD83D707003E85EF4024
:1023C000C04CAA848327C4FD83D727003E85EF40F5
:1023D000C04BAA87BE852685EF40C007AA87BE846A
:1023E0008327C4FD83D727003E85EF40004A2A8912
:1023F0008327C4FD83D707003E85EF400049AA87A5
:10240000BE854A85EF30302FAA873E87B707012067
:10241000BA8503A5473EEF40E003AA87BE8526851F
:10242000EF305061AA878325C4FE3E85EF30B02C83
:10243000AA872324F4FE93050000032584FEEF30D1
:102440007050AA876355F000832784FE19A0930774
:1024500000003E85B2502254925402594561828058
:10246000411106C622C40008EF60800FAA873E858E
:10247000EF60600C2A8723A0E1961529EFF00FD4B6
:10248000153BEFF0EFBF0100B240224441018280D2
:10249000797122D60018232CA4FC232EB4FCB71784
:1024A000008083A707B611476353F700914713874E
:1024B0001700B717008023A0E7B603A7019783C7CB
:1024C00041973E869386418AB2878607B2978607F0
:1024D000B697839707001D8F23A8E19603A78197DE
:1024E00083C741973E869386418AB2878607B29713
:1024F0008607B697839727001D8F23ACE19603A725
:10250000019583C741973E869386418AB2878607A5
:10251000B2978607B697839747001D8F23A8E1944B
:1025200083C74197BE861387418AB6878607B697C9
:102530008607BA97035784FD2390E7000357A4FD4D
:102540002391E7000357C4FD2392E700831784FD1E
:102550003E8783A701973E9723A8E1968317A4FDA2
:102560003E8783A781973E9723ACE1968317C4FDEE
:102570003E8783A701953E9723A8E19483C741979F
:10258000138717009547B367F70213F7F70F238AEE
:10259000E196B717008003A707B6914763CBE70022
:1025A000832784FD2324F4FE8357C4FD2316F4FE01
:1025B00035A803A701979547B347F70293960701FC
:1025C000C18603A781979547B347F7021397070181
:1025D000418703A601959547B347F602C207C18715
:1025E0002314D4FE2315E4FE2316F4FE81478356FC
:1025F00084FE41677D17758FC176F58FD98F03579C
:10260000A4FE4207C166FD16F58FD98F0147035618
:10261000C4FEC166FD16F18E4176718F558F3E88DE
:10262000BA88C28746883E85C28532544561828019
:102630005D7186C6A2C4A6C28008232EA4FA83A711
:1026400001963E85EF5090672324A4FE2326B4FE16
:10265000B167938707B801482320F4FE232204FFC3
:10266000B7770200938707100148232CF4FC232E30
:1026700004FDB7173D009387079001482328F4FC19
:10268000232A04FDB727F400938707400148232439
:10269000F4FC232604FD83A5819803A6C198832713
:1026A00084FE0328C4FEB386B740368533B5A70041
:1026B0003307C840B307A7403E87B6873A88032749
:1026C00044FEC28663E8E604032744FEC28663161E
:1026D000D700032704FE63EFE702832784FE032865
:1026E000C4FE23A4F19823A60199930704FC3E8518
:1026F000E52A8324C4FB032504FC832544FC493BD1
:10270000AA872E882390F40013D707012391E400B1
:102710002392040183A5819603A6C196832784FE94
:102720000328C4FEB386B740368533B5A700330708
:10273000C840B307A7403E87B6873A880327C4FD41
:10274000C28663ECE6020327C4FDC2866316D70087
:10275000032784FD63E3E702832784FE0328C4FE86
:1027600023A4F19623A601978327C4FBD10703274F
:10277000C4FBBA853E85EFF02FA783A5819503A6FC
:10278000C195832784FE0328C4FEB386B7403685EF
:1027900033B5A7003307C840B307A7403E87B687C5
:1027A0003A88032744FDC28663EDE608032744FD0B
:1027B000C2866316D700032704FD63E4E708832776
:1027C00084FE0328C4FE23ACF19423AE0195832735
:1027D000C4FBB1073E85EFF01FA283A701819305DB
:1027E00000003E85EF30901DAA8763D8070083273D
:1027F000C4FB984B23A8E180A9A003A70181B707D8
:10280000012083A5C73E3A85EF30D022AA87BE8437
:102810008327C4FB984BB707012083A5073F3A8560
:10282000EF305021AA87BE852685EF30E03BAA878E
:102830003E878327C4FB98CB8327C4FB984B23A8F0
:10284000E18083A5019803A64198832784FE03288D
:10285000C4FEB386B740368533B5A7003307C840FA
:10286000B307A7403E87B6873A880327C4FCC286D1
:1028700063E9E6020327C4FCC2866316D700032778
:1028800084FC63E0E702832784FE0328C4FE23A0C0
:10289000F19823A201998327C4FBA1073E85EFF09D
:1028A000CF800100B6402644964461618280411188
:1028B00006C622C400080145EF50F06A054793861A
:1028C00041810946E545EF50505E0145EF50B06942
:1028D0000547938681810946E545EF50105D01006B
:1028E000B240224441018280797106D622D4001878
:1028F000232EA4FC930780FAA304F4FE0145EF50B5
:102900009066930794FE0147BE860546E545EF5065
:10291000D0590145EF503065930704FE0547BE8648
:102920001946E545EF50D05C834714FEA207C20765
:10293000C1873E87834704FED98F91872317F4FE12
:10294000834734FEA207C207C1873E87834724FE20
:10295000D98F91872316F4FE834754FEA207C2073E
:10296000C1873E87834744FED98F91872315F4FEA4
:102970008317E4FE3E85EF30B0652A87B707012054
:1029800083A5473F3A85EF30F00AAA873E87B7070D
:10299000012083A5873F3A85EF30D009AA873E857D
:1029A000EF30105DAA871397070141878327C4FD85
:1029B0002390E7008317C4FE3E85EF3070612A87BD
:1029C000B707012083A5473F3A85EF30B006AA87B5
:1029D0003E87B707012083A5873F3A85EF309005F2
:1029E000AA873E85EF30D058AA8713970701418701
:1029F0008327C4FD2391E7008317A4FE3E85EF30B3
:102A0000305D2A87B707012083A5473F3A85EF301D
:102A10007002AA873E87B707012083A5873F3A85C2
:102A2000EF305001AA873E85EF309054AA87139764
:102A3000070141878327C4FD2392E7000100B250BC
:102A4000225445618280011122CE00102326A4FE6B
:102A50001387C1818327C4FEBA9783C707003E85C9
:102A6000724405618280797122D60018232EA4FC5D
:102A7000AE87A30DF4FC1387C1818327C4FDBA97E9
:102A800083C707000347B4FD6378F702B7070080E8
:102A9000138707008327C4FD8A07BA9798438347A3
:102AA000B4FD8607BA9703C707002306E4FE83C771
:102AB0001700A306F4FE19A8FD572304F4FEFD57E2
:102AC000A304F4FE835784FE2316F4FE81470347D4
:102AD000C4FE1377F70F93F707F0D98F0347D4FE9F
:102AE0001377F70F2207C1769386F60FF58FD98FEC
:102AF0003E85325445618280011106CE22CC001001
:102B00000145EF5070342326A4FEAD450325C4FED5
:102B1000EF50B02AAD450325C4FEEF501026814585
:102B20000325C4FEEF50702981450325C4FEEF50F4
:102B3000D0240100F240624405618280011106CE7A
:102B400022CC00100145EF5030302326A4FEAD45C5
:102B50000325C4FEEF50702AAA8793B7170093F796
:102B6000F70F3E85F240624405618280011106CE76
:102B700022CC00100145EF50302D2326A4FE8145C4
:102B80000325C4FEEF507027AA8793B7170093F769
:102B9000F70F3E85F240624405618280011106CE46
:102BA00022CC0010613FAA87A307F4FEC137AA8791
:102BB0002307F4FE8347E4FEB1C783C7518893C758
:102BC000170093F7F70F9DCF83A7818889E7054703
:102BD00023A4E188BDA803A7818885476317F70070
:102BE000094723A4E188F52AADA003A78188894776
:102BF0006317F7000D4723A4E188E52299A823A4D1
:102C0000018881A88347F4FEA9C783C7418893C779
:102C1000170093F7F70F95CF83A7818891E70D47AA
:102C200023A4E1887D2A35A003A781888547631501
:102C3000F70023A4018831A803A781888947631678
:102C4000F700054723A4E18829A0094723A4E188C8
:102C5000492A0347F4FE2382E1880347E4FEA38266
:102C6000E1880100F240624405618280411122C680
:102C70000008A14773B0073001003244410182804F
:102C8000411122C60008A14773A007300100324459
:102C900041018280411122C60008B722011037038A
:102CA000400023A6620001000100010001000100B4
:102CB00023A6020001000100010001000100010043
:102CC0000100010001000100010001000100324487
:102CD00041018280411122C60008B722011037034A
:102CE000400023A662000100010001000100010074
:102CF000010001000100010001000100010023A604
:102D00000200010001000100010001000100324445
:102D100041018280011122CE0010B7270110A107C6
:102D20002326F4FE8327C4FE9843B70740005D8F37
:102D30008327C4FE98C3010072440561828001119B
:102D400006CE22CC0010AA87A307F4FE8347F4FE28
:102D500099C3493711A03D3F0100F240624405612B
:102D60008280797106D622D40018AA87A30FF4FCBA
:102D7000232604FE35A00347F4FD9D468327C4FEA9
:102D8000B387F640B357F74093F7F70F858B93F768
:102D9000F70F3E856D378327C4FE85072326F4FE93
:102DA0000327C4FE9D47E3D8E7FC0100B25022543C
:102DB00045618280011106CE22CC00102326A4FE9C
:102DC0008347D4FE3E85713F8347C4FE3E85513F15
:102DD0008347E4FE3E8571370100F240624405619D
:102DE0008280011106CE22CC0010232604FE39A8D1
:102DF000230404FEA30404FE230504FE032584FE2D
:102E0000553F8327C4FE85072326F4FE0327C4FE0F
:102E10009307F002E3DEE7FCB53D1305401F3D2DAF
:102E20000100F240624405618280011106CE22CC8D
:102E300000102D3D232604FEA1A09386819903272F
:102E4000C4FEBA878607BA97B69703C7070083C63A
:102E50001700A206558F83C72700C207B3E6E70015
:102E60008147370700017D17758FB70600FFF58F83
:102E7000D98F3E8581378327C4FE85072326F4FE3C
:102E80000327C4FE9307F002E3D9E7FA21351305BF
:102E9000803EE923F5330100F240624405618280FF
:102EA000011122CE0010232604FEA1A09386819951
:102EB0000327C4FEBA878607BA97B6972380070010
:102EC000938681990327C4FEBA878607BA97B69777
:102ED000A3800700938681990327C4FEBA878607DB
:102EE000BA97B697238107008327C4FE8507232658
:102EF000F4FE0327C4FE9307F002E3D9E7FA0100CA
:102F0000724405618280011122CE00102326A4FEA6
:102F10002324B4FEB287A303F4FEB6872303F4FE92
:102F2000BA87A302F4FE8327C4FE63C907060327FA
:102F3000C4FE9D4763C4E706832784FE63C007067B
:102F4000032784FE954763CBE704832784FE850728
:102F50008E071387F7FF8327C4FEB307F7409386D6
:102F600081993E8706073E973697834674FE230075
:102F7000D700938681993E8706073E97369783460A
:102F800064FEA300D700938681993E870607BA970F
:102F9000B697034754FE2381E70011A00100724455
:102FA00005618280797106D622D400182326A4FEFA
:102FB0002324B4FE2322C4FE2320D4FE232EE4FCCB
:102FC0008347C4FD8346D4FD0347E4FD3E86832545
:102FD00044FE0325C4FE053F8347C4FD8346D4FD5C
:102FE0000347E4FD3E86832544FE032584FE213FFE
:102FF0008347C4FD8346D4FD0347E4FD3E86832515
:1030000004FE0325C4FE01378347C4FD8346D4FD77
:103010000347E4FD3E86832504FE032584FEE53553
:103020000100B2502254456182805D7186C6A2C4FF
:10303000A6C28008232EA4FA232CB4FA232AC4FAA9
:1030400085358325C4FB0325C4FBEF30A01EAA876A
:10305000BE84832584FB032584FBEF30A01DAA8753
:10306000BE852685EF205038AA873E85EF30B00B0D
:10307000AA872E883E85C285EF30B045AA872E8864
:103080003E85C285EF30B013AA87232EF4FCB70724
:10309000012083A5C749032584FBEF30A019AA8727
:1030A0003E87B707012083A5074A3A85EF20B06421
:1030B000AA873E85EF30C06BAA879107232CF4FCCA
:1030C000B707012083A5474A0325C4FBEF308016CC
:1030D000AA873E87B707012083A5874A3A85EF2054
:1030E0009061AA873E85EF30A068AA878D07232AC2
:1030F000F4FC832784FDFD172326F4FE832784FD3B
:103100002324F4FE832744FDFD172322F4FE8327A6
:1031100044FD2328F4FC8327C4FE63D40700232640
:1031200004FE032784FE9D4763D5E7009D472324C3
:10313000F4FE832744FE63D40700232204FE032702
:1031400004FD954763D5E70095472322F4FEB707B2
:10315000012083A5C74A0325C4FDEF302006AA87B6
:1031600063D00706232004FEA9A093868199032734
:1031700004FEBA878607BA97B6972380070093861E
:103180008199032704FEBA878607BA97B69729471D
:10319000A380E70093868199032704FEBA878607F8
:1031A000BA97B69723810700832704FE850723205B
:1031B000F4FE032704FE9307F002E3D8E7FAF9A828
:1031C000B707012083A5074B0325C4FDEF20107F1F
:1031D000AA8763D50702230004FCA947A300F4FCD7
:1031E000230104FC032704FC832604FD032644FE7C
:1031F000832584FE0325C4FE75334DA0B707012047
:1032000083A5474B0325C4FDEF20507BAA8763D6D7
:103210000702A9472302F4FCA947A302F4FC2303F5
:1032200004FC032744FC832604FD032644FE832577
:1032300084FE0325C4FEBD3395A0B707012083A5F6
:10324000874B0325C4FDEF207077AA8763D607025A
:10325000A9472304F4FC9547A304F4FC230504FCCC
:10326000032784FC832604FD032644FE832584FE75
:103270000325C4FE053B1DA0A9472306F4FCA306B5
:1032800004FC230704FC0327C4FC832604FD032657
:1032900044FE832584FE0325C4FE2933EFF0FFB8E6
:1032A0000100B6402644964461618280797106D659
:1032B00022D40018232EA4FC232CB4FCEFF05FBE14
:1032C0008327C4FD63D807008327C4FD938787162F
:1032D000232EF4FC0327C4FD9307701663D8E70080
:1032E0008327C4FD938787E9232EF4FC0327C4FDBD
:1032F00093078016B367F702138767019307D0021D
:103300003347F7029357F741F5833E971D8BB30779
:10331000F7402324F4FE232604FE91A0832784FE95
:103320000327C4FE1377F70FBA853E85EFF0AFF39E
:10333000AA872312F4FE834744FE3E85834754FE4A
:10334000BE85834784FD834694FD0347A4FD3E86E6
:10335000EFF07FBB8327C4FE85072326F4FE832777
:1033600084FE3E85EFF02FEEAA873E878327C4FEBA
:10337000E3C6E7FAEFF07FAB0100B250225445619B
:1033800082805D7186C6A2C4CAC2CEC052DE56DC3F
:103390008008232EA4FAEF50A01CAA873E85EF5088
:1033A0008019232EA4FC0325C4FDEF5020112328EF
:1033B000A4FC232AB4FC8327C4FB3E898149B72798
:1033C000F400938707403387F9028147B307F90276
:1033D0003E97B727F40093870740B306F902B33A44
:1033E000F902368AB3075701BE8A1306803E81462A
:1033F0005285D685EF10B010AA872E882324F4FCBE
:10340000232604FD01000325C4FDEF50200BAA86EE
:103410002E87832504FD032644FDB387B6403E85F1
:1034200033B5A6003308C7403307A8403A880327BE
:10343000C4FCC286E3E9E6FC0327C4FCC28663162B
:10344000D700032784FCE3E0E7FC0100B6402644F4
:1034500016498649725AE25A616182805D7186C658
:10346000A2C4CAC2CEC052DE56DC8008232EA4FA03
:10347000EF50000FAA873E85EF50E00B232EA4FCEF
:103480000325C4FDEF5080032328A4FC232AB4FCA9
:103490008327C4FB3E898149B727F40093870740FF
:1034A0003387F9028147B307F9023E97B727F40043
:1034B00093870740B306F902B33AF902368AB30795
:1034C0005701BE8A37460F001306062481465285EF
:1034D000D685EF10D002AA872E882324F4FC232659
:1034E00004FD01000325C4FDEF40507DAA862E8710
:1034F000832504FD032644FDB387B6403E8533B5DE
:10350000A6003308C7403307A8403A880327C4FC05
:10351000C286E3E9E6FC0327C4FCC2866316D70033
:10352000032784FCE3E0E7FC0100B640264416498B
:103530008649725AE25A61618280411106C622C4EC
:1035400000080545EF5060322A8723A4E1A283A733
:1035500081A299E7B70701201385C74C452D09A81B
:1035600003A781A2F167938507203A85EF50802455
:10357000B240224441018280797106D622D40018DB
:10358000232EA4FCAE87231DF4FC83A781A299E718
:10359000B70701201385474E952D25A8232604FE45
:1035A0001DA083A681A20327C4FD8327C4FEBA976A
:1035B00083C70700BE853685EF5080228327C4FE6F
:1035C00085072326F4FE8357A4FD0327C4FEE36A80
:1035D000F7FCB250225445618280011122CE0010C6
:1035E000AA87A307F4FE0347F4FE85476314F70098
:1035F000894719A09307F00F3E85724405618280C8
:10360000597186D6A2D48018232EA4F883A781A24C
:1036100099E7B70701201385474ECD2BBDA0A3071F
:1036200004FE83A781A2130784FABA853E85EF5072
:10363000001EAA87B9EB032784FAFD576307F70436
:10364000832684FA8347F4FE13871700A307E4FE5A
:1036500013F7F60F930604FFB697238EE7FA834716
:10366000C4FA3E859D3FAA873E878347F4FEE39ACE
:10367000E7FA0347F4FE9307C4FA0326C4F9BA85B0
:103680003E850128A30704FE69BFB6502654656134
:103690008280797106D622D40018232EA4FCAE872E
:1036A000232AC4FCA30DF4FC0347B4FD854763FA49
:1036B000E7088327C4FD83C70700A306F4FE8347FA
:1036C000B4FDFD170327C4FDBA9783C7070023067F
:1036D000F4FEA30704FE230704FE15A08347E4FEBF
:1036E0000327C4FDBA9703C707008347F4FEBA97C0
:1036F000A307F4FE8347E4FE85072307F4FE034790
:10370000E4FE8347B4FDFD17E34AF7FC0347F4FEEC
:103710008347C4FE630EF7008347F4FE0347C4FEED
:103720003A86BE85B707012013854750D92629A8B8
:103730000347D4FE85476318F700032544FD092895
:1037400021A0010011A00100B250225445618280E5
:103750005D7186C6A2C48008232EA4FA8327C4FB09
:10376000638807249307A0FA2304F4FC8327C4FB8F
:103770008397070093F7F70FA304F4FC8327C4FB98
:1037800083970700A187C207C18793F7F70F230527
:10379000F4FC8327C4FB8397270093F7F70FA30557
:1037A000F4FC8327C4FB83972700A187C207C18746
:1037B00093F7F70F2306F4FC8327C4FB8397470096
:1037C00093F7F70FA306F4FC8327C4FB8397470006
:1037D000A187C207C18793F7F70F2307F4FC83275C
:1037E000C4FB9C472322F4FC834744FCA307F4FC5E
:1037F000834754FC2308F4FC834764FCA308F4FCCF
:10380000834774FC2309F4FC8327C4FB8397470197
:1038100093F7F70FA309F4FC8327C4FB83974701B1
:10382000A187C207C18793F7F70F230AF4FC832708
:10383000C4FB8397670193F7F70FA30AF4FC832770
:10384000C4FB83976701A187C207C18793F7F70F6E
:10385000230BF4FC8327C4FB8397870193F7F70FAF
:10386000A30BF4FC8327C4FB83978701A187C207BE
:10387000C18793F7F70F230CF4FC8327C4FB8397CE
:10388000A70193F7F70FA30CF4FC8327C4FB8397DE
:10389000A701A187C207C18793F7F70F230DF4FC97
:1038A0008327C4FB8397C70193F7F70FA30DF4FC9D
:1038B0008327C4FB8397C701A187C207C18793F7FA
:1038C000F70F230EF4FC8327C4FB8397E70193F7DC
:1038D000F70FA30EF4FC8327C4FB8397E701A187AE
:1038E000C207C18793F7F70F230FF4FC8327C4FBAC
:1038F00083D7C70093F7F70FA30FF4FC8327C4FB0C
:1039000083D7C700A183C207C18393F7F70F2300B2
:10391000F4FE8327C4FB83D7E70093F7F70FA300D8
:10392000F4FE8327C4FB83D7E700A183C207C183CA
:1039300093F7F70F2301F4FE8327C4FB9C4B23204E
:10394000F4FC834704FCA301F4FE834714FC230228
:10395000F4FE834724FCA302F4FE834734FC2303D4
:10396000F4FEA30704FE232404FE15A0832784FE8F
:10397000130704FFBA9703C787FD8347F4FEBA977E
:10398000A307F4FE832784FE85072324F4FE032780
:1039900084FEF947E3DCE7FC8347F4FEA303F4FE6F
:1039A000930784FC930500023E85EFF0FFBC11A055
:1039B0000100B640264461618280011106CE22CC0E
:1039C0000010EF40F039AA873E85EF40D03623261D
:1039D000A4FE0325C4FEEF40B0332324A4FE032538
:1039E00084FEEF40F05A0145EF40F0572322A4FE39
:1039F000832744FE81EBB707012013854753392401
:103A0000FD5715A00546E1679385076A032544FE27
:103A1000EF407046EFF07FB2EFE09FA41305803EC9
:103A2000EFF03F9681473E85F24062440561828017
:103A3000397106DE22DC26DA80004137AA8781CB85
:103A4000B707012013850755D122FD5769A8EFF06C
:103A5000AF8AEFF02FAC1305803EEFF09F92EFE0BE
:103A60002FD99307C4FC3E85EFF09FB99307C4FCA0
:103A70003E85EFE0FFBB83A781888DE7831784FE37
:103A80003E85EF20F054AA848317A4FE3E85EF20E4
:103A900030542A878327C4FD3E86BA852685EFF0F9
:103AA000CFD83DA803A7818885476314F702831701
:103AB00064FE3E87230604FEF947A306F4FE93073F
:103AC00060042307F4FE8325C4FE3A85EFF00FFE61
:103AD00001A803A7818889476314F700EFE04FD15D
:103AE000EFF0CF8BBDBF3E85F2506254D2542161BE
:103AF000828039713EDA2ED232D436D63AD842DCC0
:103B000046DE9387418222CC804326CA06CEAA8411
:103B100009C41C4C99E32285052B0C4454102686BD
:103B2000228536C6EF003018F2406244D24421614B
:103B30008280011126CA4AC806CE22CC4EC652C483
:103B4000AA842E8901C51C4D91E3FD299C4C80441B
:103B500099E32685D52997D7FFFF938727A3631C71
:103B6000F402C0408357C400A18BB1C71C48A1C751
:103B7000FD59294A1C4483450900FD17B1E91CC4BD
:103B800063DE07062286A94526857120FD57630856
:103B9000F502294535A097D7FFFF938727A1631426
:103BA000F4008044C1B797D7FFFF9387279CE31B9E
:103BB000F4FAC04445BFA2852685312A55D97D55E2
:103BC000F2406244D2444249B249224A05618280AD
:103BD0001CC4050963D70700184C63CBE700638951
:103BE00045011C401387170018C02380B70059B740
:103BF000228626850D20E31F35F7D1B71C40138799
:103C0000170018C029472380E70061B793874182D6
:103C1000AA85884339BF011122CC26CA4AC806CEDC
:103C20004EC6AA842E89328401C51C4D91E32929F0
:103C300097D7FFFF938787956319F406C0401C4C04
:103C40001CC48357C400A18BC9C31C48BDCF1C48EA
:103C500008409379F90F1379F90F1D8D5C4863467D
:103C6000F500A2852685D9242DE51C440505FD1700
:103C70001CC41C401387170018C0238037015C4800
:103C80006389A7008357C400858B81CBA94763163E
:103C9000F900A2852685592C0DEDF24062444A8533
:103CA000D2444249B2490561828097D7FFFF93878A
:103CB000E78F6314F400804459B797D7FFFF9387C9
:103CC000E78AE31EF4F6C0449DBFA2852685212025
:103CD0003DDD7D59D9B741119387418226C2844386
:103CE00022C44AC006C62A892E8489C49C4C99E302
:103CF0002685992E97D7FFFF93874789631CF40287
:103D0000C0400317C40093170701C18393F68700CF
:103D1000B5EE93F607019DEEA5472320F900136742
:103D200007042316E4007D55B24022449244024920
:103D30004101828097D7FFFF938747876314F40080
:103D40008044C1B797D7FFFF93874782E31BF4FAFC
:103D5000C04445BF918B8DC74C5889C99307440413
:103D60006384F5004A85A12B232A04028357C400EB
:103D70002322040093F7B7FD2316F4001C481CC04F
:103D80008357C40093E787002316F4001C4881EF93
:103D90008357C4001307002093F707286385E700C3
:103DA000A2854A85B5218357C40013F7170005C7BC
:103DB0005C4823240400B307F0401CCC1C48014598
:103DC000A5F78317C40013F7070839DF93E7070443
:103DD0002316F40089BF898B014791E3584818C422
:103DE000F1BF83D7C500011122CC26CA06CE4AC82E
:103DF0004EC613F78700AA842E8465E7D84163472F
:103E0000E000B8416344E0000145C1A058546DDFB3
:103E100003A904009396370123A0040063DE06067D
:103E200068488357C400918B99C75C401D8D5C58CE
:103E300099C33C401D8D5C540C502A8681462685D2
:103E40008297FD570357C400631DF5009440F54762
:103E500063E4D708B70740208507B3D7D700858B21
:103E6000A5CF1C48232204001CC09317370163D838
:103E70000700FD576314F5009C4091E368C84C5857
:103E800023A02401D1D1930744046384F50026853F
:103E90003D21232A04028DBF0C508546014626850C
:103EA0000297FD57E31FF5F69C40A5DF7547638534
:103EB000E70059476395E70023A02401B1B7835772
:103EC000C40093E707042316F400F2406244D2448E
:103ED0004249B24905618280136707042316E40052
:103EE000EDB783A90501E38109F203A905008D8BD4
:103EF00023A0350133093941014791E3D84918C45A
:103F0000E35420F11C540C50CA864E8626858297B5
:103F1000634AA0008357C4007D5593E70704231626
:103F2000F40065B7AA993309A940D9BF9C49A5C334
:103F3000011122CC06CE2A8411C51C4D81E72EC664
:103F40002122B24597C7FFFF93874764639CF50022
:103F50004C408397C5009DC722856244F2400561AD
:103F60006FF03FE897C7FFFF938747646394F500BE
:103F70000C44C5B797C7FFFF9387475FE39BF5FCEA
:103F80004C44C1BFF2406244014505618280014555
:103F90008280411122C406C62A842316B500231745
:103FA000C500232005002322050023240500232229
:103FB000050623280500232A0500232C0500214699
:103FC00081451305C505E52497170000938747B57C
:103FD0005CD0971700009387A7B71CD497170000F1
:103FE0009387E7BB5CD4971700009387A7BE00D0E8
:103FF0001CD8B2402244410182809705000093857D
:1040000025F3A1A2411126C2130680069384F5FF71
:10401000B384C4024AC02E8922C406C693854407CD
:1040200099262A8419C92320050023222501310558
:1040300008C41386840681459D2C2285B240224403
:1040400092440249410182801C4DADE3411106C6F4
:1040500022C497070000938787FA1CD59387818233
:104060009C43232405042326050423280504631404
:10407000F50085471CCD2A841D2848C022850528C7
:1040800008C422852D2048C4484001469145113777
:1040900008440546A545F53D48440946C945D53D72
:1040A00085471CCCB240224441018280828041116C
:1040B0009387818226C284434AC006C69C4C22C490
:1040C0002A8999E326854937938484048044DC4017
:1040D000FD1763D607009C40B1CF8440C5BF0317CE
:1040E000C40031E7C177850723220406232004009A
:1040F00023220400232404005CC423280400232A70
:104100000400232C0400214681451305C4054522E3
:10411000232A0402232C0402232404042326040457
:104120002285B24022449244024941018280130414
:10413000840679BF91454A85EFF0DFEC88C02A8478
:1041400049FDB1472320F900E1BF797122D44AD05B
:1041500052CC56CA5AC85EC606D626D24ECE2A8A37
:10416000AE8A130485040149054BFD5B09ECB2508E
:1041700022544A8592540259F249624AD24A424B29
:10418000B24B45618280044483294400FD1963D405
:1041900009000040E1BF83D7C400637BFB00839725
:1041A000E40063877701A6855285829A3369A90066
:1041B00093848406E1BF1971A6DAAE848395E50085
:1041C000A2DC86DE328463DC050083D7C40023A032
:1041D000060093F7070885E7930700401DA0300805
:1041E00036C6EF00D024B246E34105FE7247BD67F4
:1041F000F98F7977BA9793B717009CC2F1BF9307ED
:1042000000041CC0F6506654D654014509618280F2
:1042100083D7C500011122CC06CE26CA4AC8898B95
:104220002E8489CF930774041CC01CC885475CC8C2
:10423000F2406244D24442490561828074003000F9
:10424000AA84953FA2452A892685312A01ED831744
:10425000C40013F7072069FFF19B93E7270023169B
:10426000F400C9B797070000938767D99CD4835798
:10427000C40008C008C893E707082316F400A24743
:104280005CC8B24791CF8315E4002685EF00F01C8F
:1042900001C98357C400F19B93E717002316F4006C
:1042A0008357C4003369F9002316240151B72A83C8
:1042B00011C62300B3007D16050365FE8280DDC1B3
:1042C00083A7C5FF411122C406C626C21384C5FFB9
:1042D00063D307003E94AA84EF00501F9387C188E0
:1042E0009C4381EF2322040023A681882244B2400C
:1042F0002685924441016F00901D637EF4001440B6
:104300003307D4006396E7009843DC43369718C020
:104310005CC0D9BFBA87D84319C3E37DE4FE944398
:104320003386D700631F86001040B29694C333864D
:10433000D700E31DC7FA10435843B29694C3D8C3BD
:1043400075B76375C400B1479CC04DB71040B30644
:10435000C4006316D70014435843B29614C058C023
:10436000C0C369B78280011126CA93843500F198D1
:1043700006CE22CC4AC84EC6A104B14763F3F4046A
:10438000B14463E2B4042A89EF0050149387C188D2
:1043900098433A8439E0938701899C4391E78145AA
:1043A0004A85812F23A8A188A6854A859927FD598A
:1043B00063193507B1472320F9004A85EF00301112
:1043C00029A0E3D004FCB1471CC10145F24062447E
:1043D000D2444249B249056182801C40858F63CF37
:1043E0000702AD4663F6F6001CC03E9404C031A03F
:1043F0005C406313870223A6F1884A85EF00300DE5
:104400001305B4009307440061993307F5405DDF5D
:104410003A94898F1CC05DBF5CC3C5B722874040FA
:1044200095BF130435007198E30285FCB305A440E1
:104430004A85C125E31C35FBB5BF1C46FD171CC6CC
:1044400063DA0700184E63C5E700A9476394F500D7
:104450006FF06FFC1C422E851387170018C2238053
:10446000B7008280011122CC26CA4AC84EC652C467
:1044700006CE2A89AE893284B304D6007D5A6314ED
:104480009400014509A8834504004E864A85753786
:104490000504E31645FFF2406244D2444249B24962
:1044A000224A05618280357122CD26CB4AC94EC78A
:1044B00006CF52C556C35AC1DEDEE2DCE6DAAA896F
:1044C000AE843289368409C51C4D99E3EFF0DFB71D
:1044D00097C7FFFF9387870B639CF40C83A4490065
:1044E00083D7C400A18BFDC79C48EDC7930700028A
:1044F000A304F1029307000302D22305F10222C6AE
:10450000930B500297CAFFFF938A4A0C054C294B24
:104510004A848347040099C36391770FB30C244105
:10452000638E0C00E6864A86A6854E85EFF09FF3E3
:10453000FD576306F51E9256E69636D28347040071
:10454000638F071CFD571309140002C802CE3ECA30
:1045500002CCA309010482D483450900154656857F
:10456000892F13041900C24759E913F7070109C736
:1045700013070002A309E10413F7870009C7130713
:10458000B002A309E104834609001307A002638077
:10459000E608F2474A84814625460347040093050E
:1045A0001400130707FD6379E60AB5CA3ECE85A855
:1045B00097C7FFFF938787FF6395F40083A4890063
:1045C00005B797C7FFFF938767FAE39BF4F083A4CF
:1045D000C90039B7A6854E85EFF0EFEF01D97D55BB
:1045E000FA406A44DA444A49BA492A4A9A4A0A4B82
:1045F000F65B665CD65C0D618280050419BF3305ED
:1046000055413315AC00C98F3EC82289B1B7324736
:1046100093064700184336C6634907023ACE03475C
:1046200004009307E002631FF70403471400930795
:10463000A002631BF702B2470904138747009C439B
:104640003AC663C107023ECA35A83307E04093E784
:1046500027003ACE3EC8E1B7B387670385462E846C
:10466000BA9725BFFD57C5B7050402CA81468147E1
:1046700025460347040093051400130707FD6376DE
:10468000E606F1F2834504000D4617C5FFFF13054A
:1046900065F4052511CD97C7FFFF9387A7F31D8DFF
:1046A00093070004B397A700424505045D8D2AC80F
:1046B00083450400194617C5FFFF1305E5F11309EB
:1046C00014002304B102F5233DC197C7FEDF938791
:1046D000679395E74247B2471377071009CF9107D1
:1046E0003EC69257D2973ED225B5B387670385461B
:1046F0002E84BA97BDBF9D07E19BA107D5B778006F
:1047000097060000938646D626860C084E859700AD
:104710000000E7000000FD572A8AE314F5FC83D768
:10472000C40093F70704E39C07EA125555BD7800CF
:1047300097060000938646D326860C084E85012AEC
:10474000D9BF797156CA9C49BA8A984522D426D2D3
:104750004ECE52CC06D64AD05AC85EC6AA892E84FE
:10476000B284368A63D3E700BA879CC00347340417
:1047700019C385079CC01C4093F7070281C79C4062
:1047800089079CC00329040013796900631A090092
:10479000130B9401FD5B5C449840998F634CF904C2
:1047A0001C408346340493F70702B336D000A5EBD0
:1047B00013063404D2854E85829AFD576303F504AF
:1047C0001C4011469840998B544481446397C7001C
:1047D000B384E64063D3040081441C441848635406
:1047E000F700998FBE94014969047D5B63982405A5
:1047F000014509A885465A86D2854E85829A631E50
:1048000075017D55B250225492540259F249624AC0
:10481000D24A424BB24B456182800509ADBF330796
:10482000D40013060003A301C7040347540493876D
:104830001600A2978906A381E7049DBF85462286BC
:10484000D2854E85829AE30E65FB050945B77971DD
:1048500022D426D24AD04ECE06D652CC56CA5AC8F8
:10486000B68983C685019307E0063289AA842E841F
:10487000138635046381F61E63E2D706930730067C
:104880006382F60A63EDD700638B061E93078005EB
:104890006387F616930A24042301D40469A89307B6
:1048A00040066386F60093079006E395F6FE1C40EB
:1048B000084393F6070893054500C1C21C410CC389
:1048C00063D807001307D002B307F040A301E40444
:1048D00097C6FFFF9386C6D0294765A09307300788
:1048E0006383F61A63EFD7009307F006638FF6042D
:1048F00093070007E390F6FA9C4193E707029CC1F7
:1049000009A8930750076382F60493078007E3938F
:10491000F6F893078007A302F40497C6FFFF938677
:1049200066CDE5A01C43938A2504938647009C43EB
:1049300014C32381F5048547B5A293F607041C41EF
:104940000CC3BDDEC207C187A5BF0C401C4313F8D2
:104950000508138547006305080008C39C4339A078
:1049600093F5050408C3FDD983D707001307F006A4
:10497000638BE60C97C6FFFF938686C62947A30183
:1049800004044C400CC463C5050008406D9908C080
:1049900099E3B28A91CDB28AB3F5E702FD1AB695D2
:1049A00083C505002380BA00B3D5E70263F3E70AA5
:1049B000A147631EF7001C40858B91CB58401C48D3
:1049C00063C7E70093070003A38FFAFEFD1A3306BF
:1049D000564110C84E87CA867000A2852685EFF022
:1049E0005FD67D5A6314450D7D55B25022549254C2
:1049F0000259F249624AD24A424B45618280A382FF
:104A0000D50497C6FFFF9386A6BD0C40084313F854
:104A100005081C4111056300080208C313F71500BF
:104A200001C793E505020CC04147B1FB0C4093F56B
:104A3000F5FD0CC0A9B713F8050408C3E30008FE90
:104A4000C207C183E1BF97C6FFFF938666B92147BE
:104A50003DB7AE8791B794411C43CC4913F8060883
:104A6000138547006306080008C39C438CC301A854
:104A700008C393F606049C43F5DA2390B700232875
:104A80000400B28A81BF1C43D04181459386470010
:104A900014C383AA07005685292C01C53305554147
:104AA00048C05C401CC8A30104042DB714485686B6
:104AB000CA8526858299E30945F31C40898B8DE7D9
:104AC000B2474844E353F5F23E8505B7854656861E
:104AD000CA8526858299E30965F1050A5C44324757
:104AE000998FE345FAFEE9BF014A930A94017D5B81
:104AF000F5B7411122C42A842E8523A601A206C639
:104B0000EF904018FD576317F5009387C1A29C43AF
:104B100091C31CC0B240224441018280411122C491
:104B20002E848395E50006C66522634905007C480E
:104B3000AA977CC8B2402244410182808357C400B6
:104B40007D777D17F98F2316F400EDB783D7C50065
:104B5000011122CC26CA4AC84EC606CE93F70710CA
:104B6000AA842E843289B68991C78395E500894647
:104B70000146092A8357C4007D777D17F98F2316D4
:104B8000F4008315E4006244F240CE864A86B249BE
:104B900042492685D24405613DA8411122C42E8494
:104BA0008395E50006C6F928FD570357C400631B2B
:104BB000F500FD77FD17F98F2316F400B24022446B
:104BC000410182808567D98F2316F40068C8FDB73C
:104BD0008395E50005A8411122C42A842E85B2855B
:104BE000368623A601A206C6EF90600FFD57631715
:104BF000F5009387C1A29C4391C31CC0B2402244DC
:104C000041018280411122C42A842E8523A601A25B
:104C100006C6EF80707BFD576317F5009387C1A22E
:104C20009C4391C31CC0B240224441018280411187
:104C300022C42A842E85B28523A601A206C6EF804F
:104C4000D07AFD576317F5009387C1A29C4391C3A7
:104C50001CC0B240224441018280411122C42A84F6
:104C60002E8523A601A206C6EF80907AFD57631712
:104C7000F5009387C1A29C4391C31CC0B24022445B
:104C800041018280411122C42A842E85B285368654
:104C900023A601A206C6EF80B079FD576317F50081
:104CA0009387C1A29C4391C31CC0B24022444101DE
:104CB000828093F5F50F2A966314C5000145828022
:104CC00083470500E38DB7FE0505FDB7828082802E
:104CD000411122C42A842E85B285368623A601A2DC
:104CE00006C6EF809077FD576317F5009387C1A242
:104CF0009C4391C31CC0B240224441018280AE87D4
:104D0000328836872A836396062097C8FFFF9388E8
:104D1000E89A63FEC50A41676374E60A1307F00F59
:104D20003337C7000E07B356E600B69883C60800AF
:104D3000369793060002998E99CAB397D7003357D6
:104D4000E5003318D600B365F7003313D5001355CB
:104D5000080133F7A5021316080141829356030197
:104D6000B3D5A5024207D98EB307B6022E8763FCDE
:104D7000F600C2961387F5FF63E7060163F5F600B8
:104D80001387E5FFC2969D8EB3F7A6024203135325
:104D90000301B3D6A602C20733E36700B305D60208
:104DA0003685637BB30042931385F6FF6366030188
:104DB0006374B3001385E6FF4207498F81454DA810
:104DC000B70600014147E360D6F66147A9BF01E697
:104DD000854633D8C602C166637ED8089306F00FB5
:104DE00063F306012147B356E800B69883C608006E
:104DF000BA9613070002158F49E7B3870741854527
:104E0000135608019318080193D80801935603011B
:104E100033F7C702B3D7C7024207D98E3385F802EA
:104E20003E8763FCA600C2961387F7FF63E706017F
:104E300063F5A6001387E7FFC296898EB3F7C60213
:104E4000420313530301B3D6C602C20733E367001C
:104E5000B388D8023685637B130142931385F6FF2E
:104E600063660301637413011385E6FF4207498FEC
:104E70003A858280B70600014147E366D8F661476C
:104E80009DB73318E800B3D5D7003313E500B35608
:104E9000D50013550801B397E70033F7A502B3E82F
:104EA000F60093170801C18313D60801B3D5A502F4
:104EB0004207518FB386B7022E86637CD700429794
:104EC0001386F5FF636707016375D7001386E5FF57
:104ED0004297B306D74033F7A602C20893D8080119
:104EE000B3D6A6024207B385D702B3671701368748
:104EF00063FCB700C2971387F6FF63E7070163F50A
:104F0000B7001387E6FFC2978D8F93150601D98DE1
:104F1000C5BD63E2D514416763FEE6021308F00FD6
:104F20003337D8000E0733D8E60097B5FFFF9385D7
:104F3000E578C29503C80500930500023A98B38549
:104F4000054185E10547E3E5F6F23335C500134732
:104F5000150039BFB70500014147E3E6B6FC6147DC
:104F6000D9B733570601B396B600D98E93DE060142
:104F700033D70701B378D703B397B7003358050188
:104F80003363F80093970601C18313580301331666
:104F9000B6003357D703C20833E80801338FE7025E
:104FA0003A8E637CE8013698130EF7FF6367D800EA
:104FB0006375E801130EE7FF36983308E841B378CC
:104FC000D8033358D803C208B38E070393170301DD
:104FD000C183B3E7F800428763FCD701B697130794
:104FE000F8FF63E7D70063F5D7011307E8FFB6972B
:104FF000420EB387D741C16E3367EE001388FEFFC0
:105000003373070193580701337806014182330E49
:1050100003033388080393560E013303C3024293FC
:105020009A96B388C80263F30601F69813D6060170
:10503000B29863E01703E39317D9C167FD17FD8E9C
:10504000C206337EFE003315B500F2968145E3714A
:10505000D5E27D17A5B38145014719BD370810007A
:105060007D18B378B8008E089357D501011113D776
:1050700045013378D800B3E7170193D846010E08ED
:1050800026CA4AC89374F77F93F8F87F1357D6015E
:1050900006CE22CC4EC613D9F501FD823367070137
:1050A0000E050E06338814416316D9226351000F92
:1050B00063980802B366C700638706569305F8FF36
:1050C00089E92A963335A600BA97AA97328585448E
:1050D000B1A89306F07F631DD8009304F07F79AAEE
:1050E0009306F07F638CD418B7068000558FC28575
:1050F0009306800363C9B608FD4663C0B60613086D
:1051000000023308B840B3160701B358B60033168F
:105110000601B3E616013336C000558E3357B7008B
:105120002A963E97B337A600BA9732851397870021
:105130006356071485041307F07F6385E448B706B8
:1051400080FFFD16FD8E9355150005899397F60196
:105150004D8D5D8D93D7160015A2938605FE93089D
:105160000002B356D70001486388150113080004F4
:10517000B305B8403318B7003366C8003336C000F3
:10518000558E014771BF598E3336C000DDBF630BAA
:10519000080AB38598408DE4B3E6A700638B064008
:1051A0009386F5FF99E63295BA973336C500B297E4
:1051B00039BF1308F07F639D0501BA87328531BF7F
:1051C0009306F07FE38BD8FEB7068000D58FAE86BE
:1051D0009305800363C4D506FD4563CBD502130850
:1051E00000023308D8403353D500B3950701331577
:1051F0000501B3E565003335A0004D8DB3D6D7006A
:105200003295B387E6003336C500B297C68439BFFE
:10521000938506FE13030002B3D5B70001486388E7
:10522000660013080004B306D8403398D7003365EE
:10523000A8003335A0004D8D8146D9B75D8D33353B
:10524000A000DDBF9386140093F5E67FBDE1B3E6D1
:10525000A700A9E463830636B366C70085C22A9611
:10526000BA973335A600AA971397870032856357FC
:105270000700370780FF7D17F98F85441377750086
:10528000630407341377F5009146630FD732930612
:10529000450033B5A600AA9736853DA699DE598EFE
:1052A000E30D06E20149B707400001459304F07F92
:1052B00021AE9305F07F6385B6302A963E97B337CB
:1052C000A6003E971315F7010582518D93571700DD
:1052D000B6846DB76356000D63910808B366C700C6
:1052E000638306349305F8FF91E93306C5403335EF
:1052F000C500998F898F32858544B1A09306F07FD0
:10530000E30DD8DC9306800363C8B608FD4663CF7F
:10531000B604130800023308B840B3160701B358A7
:10532000B60033160601B3E616013336C000558EBB
:105330003357B7003306C5403387E740B337C5005E
:10534000B307F740328513978700E35907F2370414
:1053500080007D147D8CAA8975A29306F07FE38F6F
:10536000D4F0B7068000558FC28569BF938605FECD
:1053700093080002B356D70001486388150113084B
:105380000004B305B8403318B7003366C80033369D
:10539000C000558E014779BF598E3336C000DDBF3E
:1053A0006304080C3388984095E8B3E5A700638E42
:1053B00005269305F8FF91E93305A640B307F740AA
:1053C0003336A600918F368905BF1303F07F631F24
:1053D0006800BA8732859304F07F7DA09305F07F43
:1053E000E389B8FEB7058000CD8FC285130880031E
:1053F0006348B8067D48634EB802130300023303C6
:10540000B340335EB50033986700331565003368E9
:10541000C8013335A0003365A800B3D5B700330504
:10542000A640B307B7403336A600918FC6843689AD
:1054300019BF138805FE130E000233D8070101437C
:105440006388C50113030004B305B3403393B70069
:105450003365A3003335A0003365A8008145C1B78B
:105460005D8D3335A000DDBF9385140093F5E57F96
:10547000B5E533E8A700B365C700B1E463180800D9
:105480006389051ABA8732853689CDBBE38805DE84
:105490003308C540B385E740B3380501B3851541EE
:1054A00013948500635A04003305A640B307F74000
:1054B0003336A600918FC9BF3365B800630F051658
:1054C000AE87428565BB63180800638A0516BA87F4
:1054D0003285368919B1E38205C0E9B3B309C54005
:1054E000B33535013384E7400D8C9315840063D7C1
:1054F0000506B309A640B307F740333636013384B7
:10550000C740368935C02285EF10805D130785FFBF
:10551000FD4763C1E70693070002998F3314E40047
:10552000B3D7F9005D8C3395E900634E9706058F7C
:1055300093071700FD4663C5F604130700021D8F8D
:105540003356F500B316E4003315E500D18E33353C
:10555000A000558DB357F40081440DB333E58900A5
:1055600055F181478144C1A84E85EF10605713055E
:10557000050269BF130485FD33948900014575B7A1
:105580000517130600023357E40081466387C700FE
:10559000930600049D8EB316D400558D3335A000BC
:1055A000598D814755BFB70780FFFD17998CE18F53
:1055B000F1B1BA873285AE84D1B1BA8732857DB96F
:1055C0009304F07F8147014513978700635B0700D1
:1055D00085041307F07F6389E406370780FF7D1792
:1055E000F98F1397D7010D81598D1307F07F8D83A4
:1055F0006399E4005D8D814709C5B707080001453F
:10560000014913F7F47FB2075207F2406244B183B5
:105610009315F901D98F33E7B700D2444249B24913
:10562000BA8505618280C28491B9BA873285C28405
:10563000A1BD81470145014941BF8147EDBF0145FA
:105640000149B70740009DB18147014559BF7971B4
:1056500013D8450126D24ECE52CC5AC85EC693947A
:10566000C50006D622D44AD056CA1378F87F2A8BB2
:10567000B28B368AB18093D9F50163040808930789
:10568000F07F630AF80C935AD5018E04B3E49A00B4
:10569000B70A8000B3EA540113143500130918C087
:1056A000014B13554A019314CA001378F57FB1805A
:1056B000135AFA016304080C9307F07F6309F8108A
:1056C0001395340093D7DB015D8DB7048000C98C3E
:1056D000139F3B00130518C0814713172B005D8FE4
:1056E0007D17B94633C649013308A94063E3E61084
:1056F00097B6FFFF938646F10A0736971843369709
:105700000287B3EAA40063820A069DC82685EF10CB
:10571000203D930755FF71476349F702F54A13048B
:1057200085FFB38AFA40B3948400B35A5B01B3EAAD
:105730009A0033148B001308D0C03309A8408DB7EA
:10574000EF10003A13050502E9B7930485FDB31A7B
:105750009B000144CDB7B3EAA400638C0A002A84FD
:10576000A68A1309F07F0D4B2DBF01440149054B5B
:105770000DBF01441309F07F094B25B733EF7401C6
:1057800063000F068DC82685EF108035930755FFFF
:1057900071476348F7027547130F85FF1D8FB39458
:1057A000E40133D7EB00D98C339FEB011306D0C053
:1057B0003305A64015B75E85EF108032130505024C
:1057C000F1B7930485FDB3949B00014FC5B733EF48
:1057D0007401630B0F005E8F1305F07F8D47F5BDDD
:1057E000814401458547D5BD81441305F07F894734
:1057F000EDB563E6540163939A2A6361E42B9396B3
:10580000FA01135714009317F40193DA1A0033E4E2
:10581000E6001395840093548F01458D135E0501B6
:10582000B3D8CA031313050113530301135704011B
:1058300093158F00B3F4CA03C68FB3061303939A6C
:10584000040133675701637CD7002A97938FF8FFD1
:105850006367A7006375D700938FE8FF2A97158FBA
:10586000B35EC703420441803377C703F686B308AB
:10587000D3034207418F637C17012A979386FEFF6B
:105880006367A700637517019386EEFF2A97C20F1F
:10589000B3EFDF00C166330417419388F6FF13DFCF
:1058A0000F0133F71F0193DE0501B3F81501B303B0
:1058B0001703B3041F033387EE02B302DF03330F72
:1058C000970013D703017A9763739700B692135F1B
:1058D0000701169FC162FD12B3765700C206B3F3EB
:1058E00053009E966367E401FE84631EE40363FC39
:1058F000D702AE9733B7B7002A973A949384FFFF45
:10590000636685006311850263EFB7006366E40197
:10591000631B8F0063F9D700AE9733B7B7002A97A0
:105920009384EFFF3A94B386D7403304E441B3B78E
:10593000D7001D8C7D5F6305850E335FC40313D7CD
:1059400006013374C403B307E3034204598C7A8716
:10595000637CF4002A941307FFFF6367A400637558
:10596000F4001307EFFF2A941D8C335FC403C206B3
:10597000C1823374C403FA873303E3034204558CB2
:10598000637C64002A949307FFFF6367A400637538
:1059900064009307EFFF2A9442075D8F9317070176
:1059A000C1833304644013530701338E1703B308D4
:1059B000130333836E02B38EFE0293570E01C69E0D
:1059C000F69763F41701C166369393D807019A9846
:1059D00041637D13B3F66700C206337E6E00F29614
:1059E00063661401631E14193A8F9DCA2A94130F1B
:1059F000F7FF6361A402636614016312141963FD67
:105A0000D50093971500B3B5B7002E95130FE7FF98
:105A10002A94BE85631414016384B600136F1F00BB
:105A20001307F83F6357E00A93777F0081CF93779E
:105A3000FF0091466388D70093064F0033BFE6010D
:105A4000FA94368F9397740063D80700B70700FF66
:105A5000FD17FD8C130708409307E07F63C8E7102C
:105A6000135F3F009397D401B3E7E70113D53400E8
:105A700032051377F77F5207B25022543181598D86
:105A80007E063367C50092540259F249624AD24AEF
:105A9000424BB24B3E85BA85456182807D18814775
:105AA0008DBB4E86D684228FDA8709476380E70C48
:105AB0000D476386E70A0547E394E7F6014581470A
:105AC00085A85286DDB7B7040800014F01468D470F
:105AD000E9BF0545198D93078003E3C1A7FEFD4784
:105AE00063CAA7041308E841B39704013357AF0012
:105AF00033180F01D98F33380001B3E7070133D5CD
:105B0000A40013F7770001CF13F7F700914663085D
